:020000020000FC
:1018000004E00EBF0FE50DBFAC9A01E0A8D0EE27B3
:10181000FF279C990994AC9805E607B902EE06B932
:101820004427EE24FF24ADEFB0E0882704E197D0F1
:1018300002E072D051D027D04630E0F334E623D016
:101840004BD03A95E1F734E63A95A1F01CD0E0F39D
:10185000C09A19D0F0F7C09833273395363010F07E
:101860002AD0F1CF10D0C8F383952695333058F3A2
:101870002068E9CFB030A1F29E1719F003E04CD0F8
:10188000CFCF55D0CDCF2F933F932FEF10E00AE06D
:10189000349BFECF349A35B1231708F0232F31172C
:1018A00008F0132F0A95A1F7121B3F912F91042FD7
:1018B000069510170895883070F08827990F981FA3
:1018C00092272D93B13039F4A03029F41397ED917C
:1018D000CD91DD919AE508950027E10EF01EE41AFE
:1018E000F00A0E2D007F02954F2D4F704295402B30
:1018F00008950F934F9348E009E1331F08F005E086
:10190000C09A2DD00FE0C0982AD04A95A9F706E4D6
:1019100026D04F910F910895C09A0F930FE01FD0DA
:10192000C0980AE01CD00F910A95B1F70895E0E045
:10193000F0E003E00ED0C0E0D1E0EF930990199001
:1019400001E007D03296CA17C8F3EF9105E001D045
:10195000089507BFE89507B700FDFDCF08951F93D1
:101960002F9314E624E62A95F1F71A95D9F70A95EC
:08197000C1F72F911F910895AA
:00000001FF
