:020000020000FC
:1018000004E00EBF0FE50DBFAC9A01E0BDD0EE279E
:10181000FF279C990994AC9805E607B902EE06B932
:101820004427EE24FF24ADEFB0E0882704E1ACD0DC
:1018300002E078D057D02DD04630E0F334E629D0FE
:1018400051D03A95E1F734E63A95A1F022D0E0F391
:10185000C09A1FD0F0F7C09833273395363010F078
:1018600030D0F1CF16D0C8F383952695333058F396
:101870002068E9CFB030A1F29E1729F00EE184D0A4
:1018800005E050D0CDCF59D002E37ED003E04AD05E
:10189000FBCF2F933F932FEF10E00AE0349BFECF56
:1018A000349A35B1231708F0232F311708F0132F7E
:1018B0000A95A1F7121B3F912F91042F069510173F
:1018C0000895883070F08827990F981F92272D93DC
:1018D000B13039F4A03029F41397ED91CD91DD9119
:1018E0009AE508950027E10EF01EE41AF00A0E2D85
:1018F000007F02954F2D4F704295402B08950F9316
:101900004F9348E009E1331F08F005E0C09A3CD04E
:101910000FE0C09839D04A95A9F706E435D04F9129
:101920000F910895C09A0F9305E02ED0C0980AE059
:101930002BD00F910A95B1F7089522243324C0E0EB
:10194000D1E00AD000E4200E0027301EDB17C8F3D8
:1019500011F4CA17B0F30895E22DF32D03E00ED071
:10196000EE27FF270990199001E008D03296E03465
:10197000C8F3E22DF32D05E001D0089507BFE895E7
:1019800007B700FDFDCF08951F932F9314E624E6BB
:101990002A95F1F71A95D9F70A95C1F72F911F915A
:0219A0000895A8
:00000001FF
